{
  "_format": "hh-sol-artifact-1",
  "contractName": "Escrow",
  "sourceName": "contracts/Escrow.sol",
  "abi": [
    {
      "inputs": [
        {
          "internalType": "uint256",
          "name": "_itemValue",
          "type": "uint256"
        },
        {
          "internalType": "address",
          "name": "_cUSDAddr",
          "type": "address"
        },
        {
          "internalType": "address",
          "name": "marketPlaceAddr",
          "type": "address"
        }
      ],
      "stateMutability": "nonpayable",
      "type": "constructor"
    },
    {
      "inputs": [
        {
          "internalType": "uint256",
          "name": "amount",
          "type": "uint256"
        }
      ],
      "name": "buyerDeposit",
      "outputs": [],
      "stateMutability": "nonpayable",
      "type": "function"
    },
    {
      "inputs": [],
      "name": "getBuyerDeposit",
      "outputs": [
        {
          "internalType": "uint256",
          "name": "",
          "type": "uint256"
        }
      ],
      "stateMutability": "view",
      "type": "function"
    },
    {
      "inputs": [],
      "name": "getSellerDeposit",
      "outputs": [
        {
          "internalType": "uint256",
          "name": "",
          "type": "uint256"
        }
      ],
      "stateMutability": "view",
      "type": "function"
    },
    {
      "inputs": [],
      "name": "releaseEscrow",
      "outputs": [],
      "stateMutability": "nonpayable",
      "type": "function"
    },
    {
      "inputs": [
        {
          "internalType": "uint256",
          "name": "amount",
          "type": "uint256"
        }
      ],
      "name": "sellerDeposit",
      "outputs": [],
      "stateMutability": "nonpayable",
      "type": "function"
    }
  ],
  "bytecode": "0x6080604052600060025560006003556000600460006101000a81548173ffffffffffffffffffffffffffffffffffffffff021916908373ffffffffffffffffffffffffffffffffffffffff1602179055506000600560006101000a81548173ffffffffffffffffffffffffffffffffffffffff021916908373ffffffffffffffffffffffffffffffffffffffff16021790555066b1a2bc2ec500006006556002600654620000ae9190620001fa565b600755348015620000be57600080fd5b5060405162000d1338038062000d138339818101604052810190620000e49190620001a4565b8260008190555081600160006101000a81548173ffffffffffffffffffffffffffffffffffffffff021916908373ffffffffffffffffffffffffffffffffffffffff16021790555080600860006101000a81548173ffffffffffffffffffffffffffffffffffffffff021916908373ffffffffffffffffffffffffffffffffffffffff160217905550505050620002d3565b60008151905062000187816200029f565b92915050565b6000815190506200019e81620002b9565b92915050565b600080600060608486031215620001ba57600080fd5b6000620001ca868287016200018d565b9350506020620001dd8682870162000176565b9250506040620001f08682870162000176565b9150509250925092565b6000620002078262000266565b9150620002148362000266565b92508262000227576200022662000270565b5b828204905092915050565b60006200023f8262000246565b9050919050565b600073ffffffffffffffffffffffffffffffffffffffff82169050919050565b6000819050919050565b7f4e487b7100000000000000000000000000000000000000000000000000000000600052601260045260246000fd5b620002aa8162000232565b8114620002b657600080fd5b50565b620002c48162000266565b8114620002d057600080fd5b50565b610a3080620002e36000396000f3fe608060405234801561001057600080fd5b50600436106100575760003560e01c80630eb479221461005c5780634172fea3146100785780636deba5f314610096578063757a5543146100b2578063a477df98146100bc575b600080fd5b6100766004803603810190610071919061074f565b6100da565b005b610080610203565b60405161008d91906107f6565b60405180910390f35b6100b060048036038101906100ab919061074f565b61020d565b005b6100ba610336565b005b6100c46106f2565b6040516100d191906107f6565b60405180910390f35b60026000546100e99190610898565b81146100f457600080fd5b600160009054906101000a900473ffffffffffffffffffffffffffffffffffffffff1673ffffffffffffffffffffffffffffffffffffffff166323b872dd3330846040518463ffffffff1660e01b815260040161015393929190610796565b602060405180830381600087803b15801561016d57600080fd5b505af1158015610181573d6000803e3d6000fd5b505050506040513d601f19601f820116820180604052508101906101a59190610726565b5080600360008282546101b89190610811565b9250508190555033600560006101000a81548173ffffffffffffffffffffffffffffffffffffffff021916908373ffffffffffffffffffffffffffffffffffffffff16021790555050565b6000600354905090565b600260005461021c9190610898565b811461022757600080fd5b600160009054906101000a900473ffffffffffffffffffffffffffffffffffffffff1673ffffffffffffffffffffffffffffffffffffffff166323b872dd3330846040518463ffffffff1660e01b815260040161028693929190610796565b602060405180830381600087803b1580156102a057600080fd5b505af11580156102b4573d6000803e3d6000fd5b505050506040513d601f19601f820116820180604052508101906102d89190610726565b5080600260008282546102eb9190610811565b9250508190555033600460006101000a81548173ffffffffffffffffffffffffffffffffffffffff021916908373ffffffffffffffffffffffffffffffffffffffff16021790555050565b600073ffffffffffffffffffffffffffffffffffffffff16600560009054906101000a900473ffffffffffffffffffffffffffffffffffffffff1673ffffffffffffffffffffffffffffffffffffffff16141561039257600080fd5b600073ffffffffffffffffffffffffffffffffffffffff16600460009054906101000a900473ffffffffffffffffffffffffffffffffffffffff1673ffffffffffffffffffffffffffffffffffffffff1614156103ee57600080fd5b60026000546103fd9190610898565b6002541461040a57600080fd5b60026000546104199190610898565b6003541461042657600080fd5b600160009054906101000a900473ffffffffffffffffffffffffffffffffffffffff1673ffffffffffffffffffffffffffffffffffffffff1663a9059cbb600560009054906101000a900473ffffffffffffffffffffffffffffffffffffffff166007546000546104979190610867565b6000546000546104a79190610811565b6104b191906108f2565b6040518363ffffffff1660e01b81526004016104ce9291906107cd565b602060405180830381600087803b1580156104e857600080fd5b505af11580156104fc573d6000803e3d6000fd5b505050506040513d601f19601f820116820180604052508101906105209190610726565b50600160009054906101000a900473ffffffffffffffffffffffffffffffffffffffff1673ffffffffffffffffffffffffffffffffffffffff1663a9059cbb600460009054906101000a900473ffffffffffffffffffffffffffffffffffffffff166007546000546105929190610867565b60005461059f91906108f2565b6040518363ffffffff1660e01b81526004016105bc9291906107cd565b602060405180830381600087803b1580156105d657600080fd5b505af11580156105ea573d6000803e3d6000fd5b505050506040513d601f19601f8201168201806040525081019061060e9190610726565b50600160009054906101000a900473ffffffffffffffffffffffffffffffffffffffff1673ffffffffffffffffffffffffffffffffffffffff1663a9059cbb600860009054906101000a900473ffffffffffffffffffffffffffffffffffffffff166006546000546106809190610867565b6040518363ffffffff1660e01b815260040161069d9291906107cd565b602060405180830381600087803b1580156106b757600080fd5b505af11580156106cb573d6000803e3d6000fd5b505050506040513d601f19601f820116820180604052508101906106ef9190610726565b50565b6000600254905090565b60008151905061070b816109cc565b92915050565b600081359050610720816109e3565b92915050565b60006020828403121561073857600080fd5b6000610746848285016106fc565b91505092915050565b60006020828403121561076157600080fd5b600061076f84828501610711565b91505092915050565b61078181610926565b82525050565b61079081610964565b82525050565b60006060820190506107ab6000830186610778565b6107b86020830185610778565b6107c56040830184610787565b949350505050565b60006040820190506107e26000830185610778565b6107ef6020830184610787565b9392505050565b600060208201905061080b6000830184610787565b92915050565b600061081c82610964565b915061082783610964565b9250827fffffffffffffffffffffffffffffffffffffffffffffffffffffffffffffffff0382111561085c5761085b61096e565b5b828201905092915050565b600061087282610964565b915061087d83610964565b92508261088d5761088c61099d565b5b828204905092915050565b60006108a382610964565b91506108ae83610964565b9250817fffffffffffffffffffffffffffffffffffffffffffffffffffffffffffffffff04831182151516156108e7576108e661096e565b5b828202905092915050565b60006108fd82610964565b915061090883610964565b92508282101561091b5761091a61096e565b5b828203905092915050565b600061093182610944565b9050919050565b60008115159050919050565b600073ffffffffffffffffffffffffffffffffffffffff82169050919050565b6000819050919050565b7f4e487b7100000000000000000000000000000000000000000000000000000000600052601160045260246000fd5b7f4e487b7100000000000000000000000000000000000000000000000000000000600052601260045260246000fd5b6109d581610938565b81146109e057600080fd5b50565b6109ec81610964565b81146109f757600080fd5b5056fea2646970667358221220d707087eea67d369ebc7cbe4b8e82fe68d631f83fa7978796a49bfae056b8a9164736f6c63430008040033",
  "linkReferences": {},
  "deployedLinkReferences": {}
}