{
  "_format": "hh-sol-artifact-1",
  "contractName": "Escrow",
  "sourceName": "contracts/Escrow.sol",
  "abi": [
    {
      "inputs": [
        {
          "internalType": "uint256",
          "name": "_itemValue",
          "type": "uint256"
        },
        {
          "internalType": "address",
          "name": "_cUSDAddr",
          "type": "address"
        },
        {
          "internalType": "address",
          "name": "marketPlaceAddr",
          "type": "address"
        }
      ],
      "stateMutability": "nonpayable",
      "type": "constructor"
    },
    {
      "inputs": [
        {
          "internalType": "uint256",
          "name": "amount",
          "type": "uint256"
        },
        {
          "internalType": "address",
          "name": "_buyer",
          "type": "address"
        }
      ],
      "name": "buyerDeposit",
      "outputs": [],
      "stateMutability": "nonpayable",
      "type": "function"
    },
    {
      "inputs": [],
      "name": "getBuyerDeposit",
      "outputs": [
        {
          "internalType": "uint256",
          "name": "",
          "type": "uint256"
        }
      ],
      "stateMutability": "view",
      "type": "function"
    },
    {
      "inputs": [],
      "name": "getSellerDeposit",
      "outputs": [
        {
          "internalType": "uint256",
          "name": "",
          "type": "uint256"
        }
      ],
      "stateMutability": "view",
      "type": "function"
    },
    {
      "inputs": [],
      "name": "releaseEscrow",
      "outputs": [],
      "stateMutability": "nonpayable",
      "type": "function"
    },
    {
      "inputs": [
        {
          "internalType": "uint256",
          "name": "amount",
          "type": "uint256"
        },
        {
          "internalType": "address",
          "name": "_seller",
          "type": "address"
        }
      ],
      "name": "sellerDeposit",
      "outputs": [],
      "stateMutability": "nonpayable",
      "type": "function"
    }
  ],
  "bytecode": "0x6080604052600060025560006003556000600460006101000a81548173ffffffffffffffffffffffffffffffffffffffff021916908373ffffffffffffffffffffffffffffffffffffffff1602179055506000600560006101000a81548173ffffffffffffffffffffffffffffffffffffffff021916908373ffffffffffffffffffffffffffffffffffffffff16021790555060286006556002600654620000a89190620001f4565b600755348015620000b857600080fd5b5060405162000d9438038062000d948339818101604052810190620000de91906200019e565b8260008190555081600160006101000a81548173ffffffffffffffffffffffffffffffffffffffff021916908373ffffffffffffffffffffffffffffffffffffffff16021790555080600860006101000a81548173ffffffffffffffffffffffffffffffffffffffff021916908373ffffffffffffffffffffffffffffffffffffffff160217905550505050620002f6565b6000815190506200018181620002c2565b92915050565b6000815190506200019881620002dc565b92915050565b600080600060608486031215620001b457600080fd5b6000620001c48682870162000187565b9350506020620001d78682870162000170565b9250506040620001ea8682870162000170565b9150509250925092565b6000620002018262000289565b91506200020e8362000289565b9250817fffffffffffffffffffffffffffffffffffffffffffffffffffffffffffffffff04831182151516156200024a576200024962000293565b5b828202905092915050565b6000620002628262000269565b9050919050565b600073ffffffffffffffffffffffffffffffffffffffff82169050919050565b6000819050919050565b7f4e487b7100000000000000000000000000000000000000000000000000000000600052601160045260246000fd5b620002cd8162000255565b8114620002d957600080fd5b50565b620002e78162000289565b8114620002f357600080fd5b50565b610a8e80620003066000396000f3fe608060405234801561001057600080fd5b50600436106100575760003560e01c806333c8a5561461005c5780634172fea314610078578063719a01da14610096578063757a5543146100b2578063a477df98146100bc575b600080fd5b61007660048036038101906100719190610783565b6100da565b005b610080610204565b60405161008d919061083d565b60405180910390f35b6100b060048036038101906100ab9190610783565b61020e565b005b6100ba610338565b005b6100c4610711565b6040516100d1919061083d565b60405180910390f35b60026000546100e991906108df565b82146100f457600080fd5b600160009054906101000a900473ffffffffffffffffffffffffffffffffffffffff1673ffffffffffffffffffffffffffffffffffffffff166323b872dd3330856040518463ffffffff1660e01b8152600401610153939291906107dd565b602060405180830381600087803b15801561016d57600080fd5b505af1158015610181573d6000803e3d6000fd5b505050506040513d601f19601f820116820180604052508101906101a5919061075a565b5081600260008282546101b89190610858565b9250508190555080600460006101000a81548173ffffffffffffffffffffffffffffffffffffffff021916908373ffffffffffffffffffffffffffffffffffffffff1602179055505050565b6000600354905090565b600260005461021d91906108df565b821461022857600080fd5b600160009054906101000a900473ffffffffffffffffffffffffffffffffffffffff1673ffffffffffffffffffffffffffffffffffffffff166323b872dd3330856040518463ffffffff1660e01b8152600401610287939291906107dd565b602060405180830381600087803b1580156102a157600080fd5b505af11580156102b5573d6000803e3d6000fd5b505050506040513d601f19601f820116820180604052508101906102d9919061075a565b5081600360008282546102ec9190610858565b9250508190555080600560006101000a81548173ffffffffffffffffffffffffffffffffffffffff021916908373ffffffffffffffffffffffffffffffffffffffff1602179055505050565b600073ffffffffffffffffffffffffffffffffffffffff16600560009054906101000a900473ffffffffffffffffffffffffffffffffffffffff1673ffffffffffffffffffffffffffffffffffffffff16141561039457600080fd5b600073ffffffffffffffffffffffffffffffffffffffff16600460009054906101000a900473ffffffffffffffffffffffffffffffffffffffff1673ffffffffffffffffffffffffffffffffffffffff1614156103f057600080fd5b60026000546103ff91906108df565b6002541461040c57600080fd5b600260005461041b91906108df565b6003541461042857600080fd5b600160009054906101000a900473ffffffffffffffffffffffffffffffffffffffff1673ffffffffffffffffffffffffffffffffffffffff1663a9059cbb600560009054906101000a900473ffffffffffffffffffffffffffffffffffffffff1660075460005461049991906108ae565b6000546000546000546104ac9190610858565b6104b69190610858565b6104c09190610939565b6040518363ffffffff1660e01b81526004016104dd929190610814565b602060405180830381600087803b1580156104f757600080fd5b505af115801561050b573d6000803e3d6000fd5b505050506040513d601f19601f8201168201806040525081019061052f919061075a565b50600160009054906101000a900473ffffffffffffffffffffffffffffffffffffffff1673ffffffffffffffffffffffffffffffffffffffff1663a9059cbb600460009054906101000a900473ffffffffffffffffffffffffffffffffffffffff166007546000546105a191906108ae565b6000546105ae9190610939565b6040518363ffffffff1660e01b81526004016105cb929190610814565b602060405180830381600087803b1580156105e557600080fd5b505af11580156105f9573d6000803e3d6000fd5b505050506040513d601f19601f8201168201806040525081019061061d919061075a565b50600160009054906101000a900473ffffffffffffffffffffffffffffffffffffffff1673ffffffffffffffffffffffffffffffffffffffff1663a9059cbb600860009054906101000a900473ffffffffffffffffffffffffffffffffffffffff1660065460005461068f91906108ae565b6040518363ffffffff1660e01b81526004016106ac929190610814565b602060405180830381600087803b1580156106c657600080fd5b505af11580156106da573d6000803e3d6000fd5b505050506040513d601f19601f820116820180604052508101906106fe919061075a565b5060006003819055506000600281905550565b6000600254905090565b60008135905061072a81610a13565b92915050565b60008151905061073f81610a2a565b92915050565b60008135905061075481610a41565b92915050565b60006020828403121561076c57600080fd5b600061077a84828501610730565b91505092915050565b6000806040838503121561079657600080fd5b60006107a485828601610745565b92505060206107b58582860161071b565b9150509250929050565b6107c88161096d565b82525050565b6107d7816109ab565b82525050565b60006060820190506107f260008301866107bf565b6107ff60208301856107bf565b61080c60408301846107ce565b949350505050565b600060408201905061082960008301856107bf565b61083660208301846107ce565b9392505050565b600060208201905061085260008301846107ce565b92915050565b6000610863826109ab565b915061086e836109ab565b9250827fffffffffffffffffffffffffffffffffffffffffffffffffffffffffffffffff038211156108a3576108a26109b5565b5b828201905092915050565b60006108b9826109ab565b91506108c4836109ab565b9250826108d4576108d36109e4565b5b828204905092915050565b60006108ea826109ab565b91506108f5836109ab565b9250817fffffffffffffffffffffffffffffffffffffffffffffffffffffffffffffffff048311821515161561092e5761092d6109b5565b5b828202905092915050565b6000610944826109ab565b915061094f836109ab565b925082821015610962576109616109b5565b5b828203905092915050565b60006109788261098b565b9050919050565b60008115159050919050565b600073ffffffffffffffffffffffffffffffffffffffff82169050919050565b6000819050919050565b7f4e487b7100000000000000000000000000000000000000000000000000000000600052601160045260246000fd5b7f4e487b7100000000000000000000000000000000000000000000000000000000600052601260045260246000fd5b610a1c8161096d565b8114610a2757600080fd5b50565b610a338161097f565b8114610a3e57600080fd5b50565b610a4a816109ab565b8114610a5557600080fd5b5056fea2646970667358221220a703d0ae63709d6c600b184401c1bc9ab83f69294fb977d74796ac7b53b4855a64736f6c63430008040033",
  "linkReferences": {},
  "deployedLinkReferences": {}
}