{
  "_format": "hh-sol-artifact-1",
  "contractName": "Marketplace",
  "sourceName": "contracts/Marketplace.sol",
  "abi": [
    {
      "inputs": [
        {
          "internalType": "address",
          "name": "_cUSDAddr",
          "type": "address"
        }
      ],
      "stateMutability": "nonpayable",
      "type": "constructor"
    },
    {
      "anonymous": false,
      "inputs": [
        {
          "indexed": false,
          "internalType": "address",
          "name": "contractAddr",
          "type": "address"
        },
        {
          "indexed": false,
          "internalType": "uint256",
          "name": "itemId",
          "type": "uint256"
        }
      ],
      "name": "newEscrow",
      "type": "event"
    },
    {
      "anonymous": false,
      "inputs": [
        {
          "indexed": false,
          "internalType": "string",
          "name": "name",
          "type": "string"
        },
        {
          "indexed": false,
          "internalType": "string",
          "name": "description",
          "type": "string"
        },
        {
          "indexed": false,
          "internalType": "uint256",
          "name": "price",
          "type": "uint256"
        },
        {
          "indexed": false,
          "internalType": "string",
          "name": "ipfsHash",
          "type": "string"
        },
        {
          "indexed": false,
          "internalType": "bool",
          "name": "sold",
          "type": "bool"
        },
        {
          "indexed": false,
          "internalType": "uint256",
          "name": "itemId",
          "type": "uint256"
        }
      ],
      "name": "newListing",
      "type": "event"
    },
    {
      "inputs": [
        {
          "internalType": "address",
          "name": "newUser",
          "type": "address"
        }
      ],
      "name": "authorizeUser",
      "outputs": [],
      "stateMutability": "nonpayable",
      "type": "function"
    },
    {
      "inputs": [],
      "name": "checkBalance",
      "outputs": [
        {
          "internalType": "uint256",
          "name": "",
          "type": "uint256"
        }
      ],
      "stateMutability": "view",
      "type": "function"
    },
    {
      "inputs": [
        {
          "internalType": "uint256",
          "name": "itemId",
          "type": "uint256"
        }
      ],
      "name": "deactivateListing",
      "outputs": [],
      "stateMutability": "nonpayable",
      "type": "function"
    },
    {
      "inputs": [
        {
          "internalType": "uint256",
          "name": "listingId",
          "type": "uint256"
        }
      ],
      "name": "getListingInfo",
      "outputs": [
        {
          "components": [
            {
              "internalType": "string",
              "name": "name",
              "type": "string"
            },
            {
              "internalType": "string",
              "name": "description",
              "type": "string"
            },
            {
              "internalType": "uint256",
              "name": "price",
              "type": "uint256"
            },
            {
              "internalType": "string",
              "name": "ipfsHash",
              "type": "string"
            },
            {
              "internalType": "enum Marketplace.ListingStatus",
              "name": "status",
              "type": "uint8"
            },
            {
              "internalType": "uint256",
              "name": "itemId",
              "type": "uint256"
            },
            {
              "internalType": "address",
              "name": "escrowAddr",
              "type": "address"
            },
            {
              "internalType": "uint256",
              "name": "createdOn",
              "type": "uint256"
            }
          ],
          "internalType": "struct Marketplace.Listing",
          "name": "",
          "type": "tuple"
        }
      ],
      "stateMutability": "view",
      "type": "function"
    },
    {
      "inputs": [],
      "name": "getListings",
      "outputs": [
        {
          "components": [
            {
              "internalType": "string",
              "name": "name",
              "type": "string"
            },
            {
              "internalType": "string",
              "name": "description",
              "type": "string"
            },
            {
              "internalType": "uint256",
              "name": "price",
              "type": "uint256"
            },
            {
              "internalType": "string",
              "name": "ipfsHash",
              "type": "string"
            },
            {
              "internalType": "enum Marketplace.ListingStatus",
              "name": "status",
              "type": "uint8"
            },
            {
              "internalType": "uint256",
              "name": "itemId",
              "type": "uint256"
            },
            {
              "internalType": "address",
              "name": "escrowAddr",
              "type": "address"
            },
            {
              "internalType": "uint256",
              "name": "createdOn",
              "type": "uint256"
            }
          ],
          "internalType": "struct Marketplace.Listing[]",
          "name": "",
          "type": "tuple[]"
        }
      ],
      "stateMutability": "view",
      "type": "function"
    },
    {
      "inputs": [],
      "name": "getUserListings",
      "outputs": [
        {
          "components": [
            {
              "internalType": "string",
              "name": "name",
              "type": "string"
            },
            {
              "internalType": "string",
              "name": "description",
              "type": "string"
            },
            {
              "internalType": "uint256",
              "name": "price",
              "type": "uint256"
            },
            {
              "internalType": "string",
              "name": "ipfsHash",
              "type": "string"
            },
            {
              "internalType": "enum Marketplace.ListingStatus",
              "name": "status",
              "type": "uint8"
            },
            {
              "internalType": "uint256",
              "name": "itemId",
              "type": "uint256"
            },
            {
              "internalType": "address",
              "name": "escrowAddr",
              "type": "address"
            },
            {
              "internalType": "uint256",
              "name": "createdOn",
              "type": "uint256"
            }
          ],
          "internalType": "struct Marketplace.Listing[]",
          "name": "",
          "type": "tuple[]"
        }
      ],
      "stateMutability": "view",
      "type": "function"
    },
    {
      "inputs": [
        {
          "internalType": "address",
          "name": "wallet",
          "type": "address"
        }
      ],
      "name": "getUserListings",
      "outputs": [
        {
          "components": [
            {
              "internalType": "string",
              "name": "name",
              "type": "string"
            },
            {
              "internalType": "string",
              "name": "description",
              "type": "string"
            },
            {
              "internalType": "uint256",
              "name": "price",
              "type": "uint256"
            },
            {
              "internalType": "string",
              "name": "ipfsHash",
              "type": "string"
            },
            {
              "internalType": "enum Marketplace.ListingStatus",
              "name": "status",
              "type": "uint8"
            },
            {
              "internalType": "uint256",
              "name": "itemId",
              "type": "uint256"
            },
            {
              "internalType": "address",
              "name": "escrowAddr",
              "type": "address"
            },
            {
              "internalType": "uint256",
              "name": "createdOn",
              "type": "uint256"
            }
          ],
          "internalType": "struct Marketplace.Listing[]",
          "name": "",
          "type": "tuple[]"
        }
      ],
      "stateMutability": "view",
      "type": "function"
    },
    {
      "inputs": [
        {
          "internalType": "string",
          "name": "name",
          "type": "string"
        },
        {
          "internalType": "string",
          "name": "description",
          "type": "string"
        },
        {
          "internalType": "uint256",
          "name": "price",
          "type": "uint256"
        },
        {
          "internalType": "string",
          "name": "ipfsHash",
          "type": "string"
        }
      ],
      "name": "newItem",
      "outputs": [],
      "stateMutability": "nonpayable",
      "type": "function"
    },
    {
      "inputs": [
        {
          "internalType": "uint256",
          "name": "listingId",
          "type": "uint256"
        }
      ],
      "name": "purchase",
      "outputs": [],
      "stateMutability": "nonpayable",
      "type": "function"
    },
    {
      "inputs": [
        {
          "internalType": "uint256",
          "name": "listingId",
          "type": "uint256"
        }
      ],
      "name": "releaseEscrow",
      "outputs": [],
      "stateMutability": "nonpayable",
      "type": "function"
    },
    {
      "inputs": [],
      "name": "withdraw",
      "outputs": [],
      "stateMutability": "nonpayable",
      "type": "function"
    }
  ],
  "bytecode": "0x6080604052600060055560286006553480156200001b57600080fd5b50604051620042ce380380620042ce833981810160405281019062000041919062000102565b806000806101000a81548173ffffffffffffffffffffffffffffffffffffffff021916908373ffffffffffffffffffffffffffffffffffffffff1602179055506003339080600181540180825580915050600190039060005260206000200160009091909190916101000a81548173ffffffffffffffffffffffffffffffffffffffff021916908373ffffffffffffffffffffffffffffffffffffffff160217905550506200017c565b600081519050620000fc8162000162565b92915050565b6000602082840312156200011557600080fd5b60006200012584828501620000eb565b91505092915050565b60006200013b8262000142565b9050919050565b600073ffffffffffffffffffffffffffffffffffffffff82169050919050565b6200016d816200012e565b81146200017957600080fd5b50565b614142806200018c6000396000f3fe60806040523480156200001157600080fd5b5060043610620000b85760003560e01c8063b9314135116200007b578063b9314135146200014b578063c71daccb1462000181578063eb18a9d814620001a3578063ed65316414620001d9578063efef39a114620001f9578063f1b2d6a3146200021957620000b8565b8063081fd1d114620000bd57806329f34c5f14620000dd5780633b8d915f14620000ff5780633ccfd60b146200011f57806367c2a360146200012b575b600080fd5b620000db6004803603810190620000d5919062002792565b6200023b565b005b620000e762000bc6565b604051620000f6919062002cb8565b60405180910390f35b6200011d600480360381019062000117919062002849565b62000f30565b005b6200012962000f99565b005b6200014960048036038101906200014391906200273a565b62001127565b005b62000169600480360381019062000163919062002849565b620011da565b60405162000178919062002dc4565b60405180910390f35b6200018b620014d5565b6040516200019a919062002de8565b60405180910390f35b620001c16004803603810190620001bb91906200273a565b6200151c565b604051620001d0919062002cb8565b60405180910390f35b620001f76004803603810190620001f1919062002849565b62001888565b005b62000217600480360381019062000211919062002849565b6200195f565b005b6200022362001f79565b60405162000232919062002cb8565b60405180910390f35b6200024562002482565b84816000018190525083816020018190525082816040018181525050818160600181905250600081608001906003811115620002aa577f4e487b7100000000000000000000000000000000000000000000000000000000600052602160045260246000fd5b90816003811115620002e5577f4e487b7100000000000000000000000000000000000000000000000000000000600052602160045260246000fd5b815250506005548160a0018181525050438160e00181815250506000816040015160008054906101000a900473ffffffffffffffffffffffffffffffffffffffff1630604051620003369062002516565b620003449392919062002e32565b604051809103906000f08015801562000361573d6000803e3d6000fd5b509050808260c0019073ffffffffffffffffffffffffffffffffffffffff16908173ffffffffffffffffffffffffffffffffffffffff16815250507f8c771a8ea2fc98e3a8dcf80a13033d0d693aa53ef514d419bc32577c9a29d76e8260c001518360a00151604051620003d792919062002c8b565b60405180910390a160008060009054906101000a900473ffffffffffffffffffffffffffffffffffffffff1690506002836040015162000418919062002fc9565b8173ffffffffffffffffffffffffffffffffffffffff166370a08231336040518263ffffffff1660e01b815260040162000453919062002c31565b60206040518083038186803b1580156200046c57600080fd5b505afa15801562000481573d6000803e3d6000fd5b505050506040513d601f19601f82011682018060405250810190620004a7919062002875565b1015620004b357600080fd5b8073ffffffffffffffffffffffffffffffffffffffff166323b872dd333060028760400151620004e4919062002fc9565b6040518463ffffffff1660e01b8152600401620005049392919062002c4e565b602060405180830381600087803b1580156200051f57600080fd5b505af115801562000534573d6000803e3d6000fd5b505050506040513d601f19601f820116820180604052508101906200055a919062002766565b508073ffffffffffffffffffffffffffffffffffffffff1663095ea7b38460c00151600286604001516200058f919062002fc9565b6040518363ffffffff1660e01b8152600401620005ae92919062002c8b565b602060405180830381600087803b158015620005c957600080fd5b505af1158015620005de573d6000803e3d6000fd5b505050506040513d601f19601f8201168201806040525081019062000604919062002766565b508173ffffffffffffffffffffffffffffffffffffffff1663719a01da6002856040015162000634919062002fc9565b336040518363ffffffff1660e01b81526004016200065492919062002e05565b600060405180830381600087803b1580156200066f57600080fd5b505af115801562000684573d6000803e3d6000fd5b50505050600283604001516200069b919062002fc9565b8273ffffffffffffffffffffffffffffffffffffffff16634172fea36040518163ffffffff1660e01b815260040160206040518083038186803b158015620006e257600080fd5b505afa158015620006f7573d6000803e3d6000fd5b505050506040513d601f19601f820116820180604052508101906200071d919062002875565b1462000760576040517f08c379a0000000000000000000000000000000000000000000000000000000008152600401620007579062002d80565b60405180910390fd5b8260026000600554815260200190815260200160002060008201518160000190805190602001906200079492919062002524565b506020820151816001019080519060200190620007b392919062002524565b50604082015181600201556060820151816003019080519060200190620007dc92919062002524565b5060808201518160040160006101000a81548160ff021916908360038111156200082f577f4e487b7100000000000000000000000000000000000000000000000000000000600052602160045260246000fd5b021790555060a0820151816005015560c08201518160060160006101000a81548173ffffffffffffffffffffffffffffffffffffffff021916908373ffffffffffffffffffffffffffffffffffffffff16021790555060e08201518160070155905050600160003373ffffffffffffffffffffffffffffffffffffffff1673ffffffffffffffffffffffffffffffffffffffff16815260200190815260200160002083908060018154018082558091505060019003906000526020600020906008020160009091909190915060008201518160000190805190602001906200091992919062002524565b5060208201518160010190805190602001906200093892919062002524565b506040820151816002015560608201518160030190805190602001906200096192919062002524565b5060808201518160040160006101000a81548160ff02191690836003811115620009b4577f4e487b7100000000000000000000000000000000000000000000000000000000600052602160045260246000fd5b021790555060a0820151816005015560c08201518160060160006101000a81548173ffffffffffffffffffffffffffffffffffffffff021916908373ffffffffffffffffffffffffffffffffffffffff16021790555060e0820151816007015550506008839080600181540180825580915050600190039060005260206000209060080201600090919091909150600082015181600001908051906020019062000a6092919062002524565b50602082015181600101908051906020019062000a7f92919062002524565b5060408201518160020155606082015181600301908051906020019062000aa892919062002524565b5060808201518160040160006101000a81548160ff0219169083600381111562000afb577f4e487b7100000000000000000000000000000000000000000000000000000000600052602160045260246000fd5b021790555060a0820151816005015560c08201518160060160006101000a81548173ffffffffffffffffffffffffffffffffffffffff021916908373ffffffffffffffffffffffffffffffffffffffff16021790555060e0820151816007015550506005600081548092919062000b72906200314e565b91905055507f8ab2d74452b509bf195e527d73f72080750df2bb418589a58dff7cd1fb90229d87878787600060055460405162000bb59695949392919062002cdc565b60405180910390a150505050505050565b6060600160003373ffffffffffffffffffffffffffffffffffffffff1673ffffffffffffffffffffffffffffffffffffffff168152602001908152602001600020805480602002602001604051908101604052809291908181526020016000905b8282101562000f2757838290600052602060002090600802016040518061010001604052908160008201805462000c5e90620030e2565b80601f016020809104026020016040519081016040528092919081815260200182805462000c8c90620030e2565b801562000cdd5780601f1062000cb15761010080835404028352916020019162000cdd565b820191906000526020600020905b81548152906001019060200180831162000cbf57829003601f168201915b5050505050815260200160018201805462000cf890620030e2565b80601f016020809104026020016040519081016040528092919081815260200182805462000d2690620030e2565b801562000d775780601f1062000d4b5761010080835404028352916020019162000d77565b820191906000526020600020905b81548152906001019060200180831162000d5957829003601f168201915b505050505081526020016002820154815260200160038201805462000d9c90620030e2565b80601f016020809104026020016040519081016040528092919081815260200182805462000dca90620030e2565b801562000e1b5780601f1062000def5761010080835404028352916020019162000e1b565b820191906000526020600020905b81548152906001019060200180831162000dfd57829003601f168201915b505050505081526020016004820160009054906101000a900460ff16600381111562000e70577f4e487b7100000000000000000000000000000000000000000000000000000000600052602160045260246000fd5b600381111562000ea9577f4e487b7100000000000000000000000000000000000000000000000000000000600052602160045260246000fd5b8152602001600582015481526020016006820160009054906101000a900473ffffffffffffffffffffffffffffffffffffffff1673ffffffffffffffffffffffffffffffffffffffff1673ffffffffffffffffffffffffffffffffffffffff1681526020016007820154815250508152602001906001019062000c27565b50505050905090565b60036002600083815260200190815260200160002060040160006101000a81548160ff0219169083600381111562000f91577f4e487b7100000000000000000000000000000000000000000000000000000000600052602160045260246000fd5b021790555050565b62000fa433620022a6565b62000fe6576040517f08c379a000000000000000000000000000000000000000000000000000000000815260040162000fdd9062002d5e565b60405180910390fd5b60008060009054906101000a900473ffffffffffffffffffffffffffffffffffffffff1690508073ffffffffffffffffffffffffffffffffffffffff1663a9059cbb33600460003373ffffffffffffffffffffffffffffffffffffffff1673ffffffffffffffffffffffffffffffffffffffff168152602001908152602001600020546040518363ffffffff1660e01b81526004016200108892919062002c8b565b602060405180830381600087803b158015620010a357600080fd5b505af1158015620010b8573d6000803e3d6000fd5b505050506040513d601f19601f82011682018060405250810190620010de919062002766565b506000600460003373ffffffffffffffffffffffffffffffffffffffff1673ffffffffffffffffffffffffffffffffffffffff1681526020019081526020016000208190555050565b6200113233620022a6565b62001174576040517f08c379a00000000000000000000000000000000000000000000000000000000081526004016200116b9062002d5e565b60405180910390fd5b6003819080600181540180825580915050600190039060005260206000200160009091909190916101000a81548173ffffffffffffffffffffffffffffffffffffffff021916908373ffffffffffffffffffffffffffffffffffffffff16021790555050565b620011e462002482565b60026000838152602001908152602001600020604051806101000160405290816000820180546200121590620030e2565b80601f01602080910402602001604051908101604052809291908181526020018280546200124390620030e2565b8015620012945780601f10620012685761010080835404028352916020019162001294565b820191906000526020600020905b8154815290600101906020018083116200127657829003601f168201915b50505050508152602001600182018054620012af90620030e2565b80601f0160208091040260200160405190810160405280929190818152602001828054620012dd90620030e2565b80156200132e5780601f1062001302576101008083540402835291602001916200132e565b820191906000526020600020905b8154815290600101906020018083116200131057829003601f168201915b50505050508152602001600282015481526020016003820180546200135390620030e2565b80601f01602080910402602001604051908101604052809291908181526020018280546200138190620030e2565b8015620013d25780601f10620013a657610100808354040283529160200191620013d2565b820191906000526020600020905b815481529060010190602001808311620013b457829003601f168201915b505050505081526020016004820160009054906101000a900460ff16600381111562001427577f4e487b7100000000000000000000000000000000000000000000000000000000600052602160045260246000fd5b600381111562001460577f4e487b7100000000000000000000000000000000000000000000000000000000600052602160045260246000fd5b8152602001600582015481526020016006820160009054906101000a900473ffffffffffffffffffffffffffffffffffffffff1673ffffffffffffffffffffffffffffffffffffffff1673ffffffffffffffffffffffffffffffffffffffff1681526020016007820154815250509050919050565b6000600460003373ffffffffffffffffffffffffffffffffffffffff1673ffffffffffffffffffffffffffffffffffffffff16815260200190815260200160002054905090565b6060600760008373ffffffffffffffffffffffffffffffffffffffff1673ffffffffffffffffffffffffffffffffffffffff168152602001908152602001600020805480602002602001604051908101604052809291908181526020016000905b828210156200187d578382906000526020600020906008020160405180610100016040529081600082018054620015b490620030e2565b80601f0160208091040260200160405190810160405280929190818152602001828054620015e290620030e2565b8015620016335780601f10620016075761010080835404028352916020019162001633565b820191906000526020600020905b8154815290600101906020018083116200161557829003601f168201915b505050505081526020016001820180546200164e90620030e2565b80601f01602080910402602001604051908101604052809291908181526020018280546200167c90620030e2565b8015620016cd5780601f10620016a157610100808354040283529160200191620016cd565b820191906000526020600020905b815481529060010190602001808311620016af57829003601f168201915b5050505050815260200160028201548152602001600382018054620016f290620030e2565b80601f01602080910402602001604051908101604052809291908181526020018280546200172090620030e2565b8015620017715780601f10620017455761010080835404028352916020019162001771565b820191906000526020600020905b8154815290600101906020018083116200175357829003601f168201915b505050505081526020016004820160009054906101000a900460ff166003811115620017c6577f4e487b7100000000000000000000000000000000000000000000000000000000600052602160045260246000fd5b6003811115620017ff577f4e487b7100000000000000000000000000000000000000000000000000000000600052602160045260246000fd5b8152602001600582015481526020016006820160009054906101000a900473ffffffffffffffffffffffffffffffffffffffff1673ffffffffffffffffffffffffffffffffffffffff1673ffffffffffffffffffffffffffffffffffffffff168152602001600782015481525050815260200190600101906200157d565b505050509050919050565b60006002600083815260200190815260200160002060060160009054906101000a900473ffffffffffffffffffffffffffffffffffffffff16905060008190508073ffffffffffffffffffffffffffffffffffffffff1663757a55436040518163ffffffff1660e01b8152600401600060405180830381600087803b1580156200191157600080fd5b505af115801562001926573d6000803e3d6000fd5b505050506200195a600654600260008681526020019081526020016000206002015462001954919062002f91565b62002382565b505050565b60006002600083815260200190815260200160002060060160009054906101000a900473ffffffffffffffffffffffffffffffffffffffff16905060008060009054906101000a900473ffffffffffffffffffffffffffffffffffffffff169050600280600085815260200190815260200160002060020154620019e4919062002fc9565b8173ffffffffffffffffffffffffffffffffffffffff166370a08231336040518263ffffffff1660e01b815260040162001a1f919062002c31565b60206040518083038186803b15801562001a3857600080fd5b505afa15801562001a4d573d6000803e3d6000fd5b505050506040513d601f19601f8201168201806040525081019062001a73919062002875565b101562001a7f57600080fd5b8073ffffffffffffffffffffffffffffffffffffffff166323b872dd333060028060008981526020019081526020016000206002015462001ac1919062002fc9565b6040518463ffffffff1660e01b815260040162001ae19392919062002c4e565b602060405180830381600087803b15801562001afc57600080fd5b505af115801562001b11573d6000803e3d6000fd5b505050506040513d601f19601f8201168201806040525081019062001b37919062002766565b508073ffffffffffffffffffffffffffffffffffffffff1663095ea7b36002600086815260200190815260200160002060060160009054906101000a900473ffffffffffffffffffffffffffffffffffffffff1660028060008881526020019081526020016000206002015462001baf919062002fc9565b6040518363ffffffff1660e01b815260040162001bce92919062002c8b565b602060405180830381600087803b15801562001be957600080fd5b505af115801562001bfe573d6000803e3d6000fd5b505050506040513d601f19601f8201168201806040525081019062001c24919062002766565b508173ffffffffffffffffffffffffffffffffffffffff166333c8a55660028060008781526020019081526020016000206002015462001c65919062002fc9565b336040518363ffffffff1660e01b815260040162001c8592919062002e05565b600060405180830381600087803b15801562001ca057600080fd5b505af115801562001cb5573d6000803e3d6000fd5b50505050600760003373ffffffffffffffffffffffffffffffffffffffff1673ffffffffffffffffffffffffffffffffffffffff168152602001908152602001600020600260008581526020019081526020016000209080600181540180825580915050600190039060005260206000209060080201600090919091909150600082018160000190805462001d4a90620030e2565b62001d57929190620025b5565b50600182018160010190805462001d6e90620030e2565b62001d7b929190620025b5565b5060028201548160020155600382018160030190805462001d9c90620030e2565b62001da9929190620025b5565b506004820160009054906101000a900460ff168160040160006101000a81548160ff0219169083600381111562001e09577f4e487b7100000000000000000000000000000000000000000000000000000000600052602160045260246000fd5b0217905550600582015481600501556006820160009054906101000a900473ffffffffffffffffffffffffffffffffffffffff168160060160006101000a81548173ffffffffffffffffffffffffffffffffffffffff021916908373ffffffffffffffffffffffffffffffffffffffff16021790555060078201548160070155505060028060008581526020019081526020016000206002015462001eaf919062002fc9565b8273ffffffffffffffffffffffffffffffffffffffff1663a477df986040518163ffffffff1660e01b815260040160206040518083038186803b15801562001ef657600080fd5b505afa15801562001f0b573d6000803e3d6000fd5b505050506040513d601f19601f8201168201806040525081019062001f31919062002875565b1462001f74576040517f08c379a000000000000000000000000000000000000000000000000000000000815260040162001f6b9062002da2565b60405180910390fd5b505050565b60606008805480602002602001604051908101604052809291908181526020016000905b828210156200229d57838290600052602060002090600802016040518061010001604052908160008201805462001fd490620030e2565b80601f01602080910402602001604051908101604052809291908181526020018280546200200290620030e2565b8015620020535780601f10620020275761010080835404028352916020019162002053565b820191906000526020600020905b8154815290600101906020018083116200203557829003601f168201915b505050505081526020016001820180546200206e90620030e2565b80601f01602080910402602001604051908101604052809291908181526020018280546200209c90620030e2565b8015620020ed5780601f10620020c157610100808354040283529160200191620020ed565b820191906000526020600020905b815481529060010190602001808311620020cf57829003601f168201915b50505050508152602001600282015481526020016003820180546200211290620030e2565b80601f01602080910402602001604051908101604052809291908181526020018280546200214090620030e2565b8015620021915780601f10620021655761010080835404028352916020019162002191565b820191906000526020600020905b8154815290600101906020018083116200217357829003601f168201915b505050505081526020016004820160009054906101000a900460ff166003811115620021e6577f4e487b7100000000000000000000000000000000000000000000000000000000600052602160045260246000fd5b60038111156200221f577f4e487b7100000000000000000000000000000000000000000000000000000000600052602160045260246000fd5b8152602001600582015481526020016006820160009054906101000a900473ffffffffffffffffffffffffffffffffffffffff1673ffffffffffffffffffffffffffffffffffffffff1673ffffffffffffffffffffffffffffffffffffffff1681526020016007820154815250508152602001906001019062001f9d565b50505050905090565b600080600090505b60038054905081101562002377578273ffffffffffffffffffffffffffffffffffffffff16600382815481106200230e577f4e487b7100000000000000000000000000000000000000000000000000000000600052603260045260246000fd5b9060005260206000200160009054906101000a900473ffffffffffffffffffffffffffffffffffffffff1673ffffffffffffffffffffffffffffffffffffffff161415620023615760019150506200237d565b80806200236e906200314e565b915050620022ae565b50600090505b919050565b60006003805490508262002397919062002f91565b905060005b6003805490508110156200247d57816004600060038481548110620023ea577f4e487b7100000000000000000000000000000000000000000000000000000000600052603260045260246000fd5b9060005260206000200160009054906101000a900473ffffffffffffffffffffffffffffffffffffffff1673ffffffffffffffffffffffffffffffffffffffff1673ffffffffffffffffffffffffffffffffffffffff168152602001908152602001600020600082825462002460919062002f34565b92505081905550808062002474906200314e565b9150506200239c565b505050565b6040518061010001604052806060815260200160608152602001600081526020016060815260200160006003811115620024e5577f4e487b7100000000000000000000000000000000000000000000000000000000600052602160045260246000fd5b815260200160008152602001600073ffffffffffffffffffffffffffffffffffffffff168152602001600081525090565b610d94806200337983390190565b8280546200253290620030e2565b90600052602060002090601f016020900481019282620025565760008555620025a2565b82601f106200257157805160ff1916838001178555620025a2565b82800160010185558215620025a2579182015b82811115620025a157825182559160200191906001019062002584565b5b509050620025b191906200264d565b5090565b828054620025c390620030e2565b90600052602060002090601f016020900481019282620025e757600085556200263a565b82601f10620025fa57805485556200263a565b828001600101855582156200263a57600052602060002091601f016020900482015b82811115620026395782548255916001019190600101906200261c565b5b5090506200264991906200264d565b5090565b5b80821115620026685760008160009055506001016200264e565b5090565b6000620026836200267d8462002e98565b62002e6f565b9050828152602081018484840111156200269c57600080fd5b620026a98482856200309d565b509392505050565b600081359050620026c2816200332a565b92915050565b600081519050620026d98162003344565b92915050565b600082601f830112620026f157600080fd5b8135620027038482602086016200266c565b91505092915050565b6000813590506200271d816200335e565b92915050565b60008151905062002734816200335e565b92915050565b6000602082840312156200274d57600080fd5b60006200275d84828501620026b1565b91505092915050565b6000602082840312156200277957600080fd5b60006200278984828501620026c8565b91505092915050565b60008060008060808587031215620027a957600080fd5b600085013567ffffffffffffffff811115620027c457600080fd5b620027d287828801620026df565b945050602085013567ffffffffffffffff811115620027f057600080fd5b620027fe87828801620026df565b935050604062002811878288016200270c565b925050606085013567ffffffffffffffff8111156200282f57600080fd5b6200283d87828801620026df565b91505092959194509250565b6000602082840312156200285c57600080fd5b60006200286c848285016200270c565b91505092915050565b6000602082840312156200288857600080fd5b6000620028988482850162002723565b91505092915050565b6000620028af838362002a73565b905092915050565b620028c2816200302a565b82525050565b620028d3816200302a565b82525050565b6000620028e68262002ede565b620028f2818562002f01565b935083602082028501620029068562002ece565b8060005b85811015620029485784840389528151620029268582620028a1565b9450620029338362002ef4565b925060208a019950506001810190506200290a565b50829750879550505050505092915050565b62002965816200303e565b82525050565b620029768162003089565b82525050565b6000620029898262002ee9565b62002995818562002f12565b9350620029a7818560208601620030ac565b620029b28162003287565b840191505092915050565b6000620029ca8262002ee9565b620029d6818562002f23565b9350620029e8818560208601620030ac565b620029f38162003287565b840191505092915050565b600062002a0d601e8362002f23565b915062002a1a8262003298565b602082019050919050565b600062002a3460158362002f23565b915062002a4182620032c1565b602082019050919050565b600062002a5b60148362002f23565b915062002a6882620032ea565b602082019050919050565b600061010083016000830151848203600086015262002a9382826200297c565b9150506020830151848203602086015262002aaf82826200297c565b915050604083015162002ac6604086018262002c0f565b506060830151848203606086015262002ae082826200297c565b915050608083015162002af760808601826200296b565b5060a083015162002b0c60a086018262002c0f565b5060c083015162002b2160c0860182620028b7565b5060e083015162002b3660e086018262002c0f565b508091505092915050565b600061010083016000830151848203600086015262002b6182826200297c565b9150506020830151848203602086015262002b7d82826200297c565b915050604083015162002b94604086018262002c0f565b506060830151848203606086015262002bae82826200297c565b915050608083015162002bc560808601826200296b565b5060a083015162002bda60a086018262002c0f565b5060c083015162002bef60c0860182620028b7565b5060e083015162002c0460e086018262002c0f565b508091505092915050565b62002c1a816200307f565b82525050565b62002c2b816200307f565b82525050565b600060208201905062002c486000830184620028c8565b92915050565b600060608201905062002c656000830186620028c8565b62002c746020830185620028c8565b62002c83604083018462002c20565b949350505050565b600060408201905062002ca26000830185620028c8565b62002cb1602083018462002c20565b9392505050565b6000602082019050818103600083015262002cd48184620028d9565b905092915050565b600060c082019050818103600083015262002cf88189620029bd565b9050818103602083015262002d0e8188620029bd565b905062002d1f604083018762002c20565b818103606083015262002d338186620029bd565b905062002d4460808301856200295a565b62002d5360a083018462002c20565b979650505050505050565b6000602082019050818103600083015262002d7981620029fe565b9050919050565b6000602082019050818103600083015262002d9b8162002a25565b9050919050565b6000602082019050818103600083015262002dbd8162002a4c565b9050919050565b6000602082019050818103600083015262002de0818462002b41565b905092915050565b600060208201905062002dff600083018462002c20565b92915050565b600060408201905062002e1c600083018562002c20565b62002e2b6020830184620028c8565b9392505050565b600060608201905062002e49600083018662002c20565b62002e586020830185620028c8565b62002e676040830184620028c8565b949350505050565b600062002e7b62002e8e565b905062002e89828262003118565b919050565b6000604051905090565b600067ffffffffffffffff82111562002eb65762002eb562003258565b5b62002ec18262003287565b9050602081019050919050565b6000819050602082019050919050565b600081519050919050565b600081519050919050565b6000602082019050919050565b600082825260208201905092915050565b600082825260208201905092915050565b600082825260208201905092915050565b600062002f41826200307f565b915062002f4e836200307f565b9250827fffffffffffffffffffffffffffffffffffffffffffffffffffffffffffffffff0382111562002f865762002f856200319c565b5b828201905092915050565b600062002f9e826200307f565b915062002fab836200307f565b92508262002fbe5762002fbd620031cb565b5b828204905092915050565b600062002fd6826200307f565b915062002fe3836200307f565b9250817fffffffffffffffffffffffffffffffffffffffffffffffffffffffffffffffff04831182151516156200301f576200301e6200319c565b5b828202905092915050565b600062003037826200305f565b9050919050565b60008115159050919050565b60008190506200305a8262003313565b919050565b600073ffffffffffffffffffffffffffffffffffffffff82169050919050565b6000819050919050565b600062003096826200304a565b9050919050565b82818337600083830152505050565b60005b83811015620030cc578082015181840152602081019050620030af565b83811115620030dc576000848401525b50505050565b60006002820490506001821680620030fb57607f821691505b6020821081141562003112576200311162003229565b5b50919050565b620031238262003287565b810181811067ffffffffffffffff8211171562003145576200314462003258565b5b80604052505050565b60006200315b826200307f565b91507fffffffffffffffffffffffffffffffffffffffffffffffffffffffffffffffff8214156200319157620031906200319c565b5b600182019050919050565b7f4e487b7100000000000000000000000000000000000000000000000000000000600052601160045260246000fd5b7f4e487b7100000000000000000000000000000000000000000000000000000000600052601260045260246000fd5b7f4e487b7100000000000000000000000000000000000000000000000000000000600052602160045260246000fd5b7f4e487b7100000000000000000000000000000000000000000000000000000000600052602260045260246000fd5b7f4e487b7100000000000000000000000000000000000000000000000000000000600052604160045260246000fd5b6000601f19601f8301169050919050565b7f596f7520617265206e6f7420616e20617574686f72697a656420757365720000600082015250565b7f53656c6c6572206465706f736974206661696c65640000000000000000000000600082015250565b7f4275796572206465706f736974206661696c6564000000000000000000000000600082015250565b60048110620033275762003326620031fa565b5b50565b62003335816200302a565b81146200334157600080fd5b50565b6200334f816200303e565b81146200335b57600080fd5b50565b62003369816200307f565b81146200337557600080fd5b5056fe6080604052600060025560006003556000600460006101000a81548173ffffffffffffffffffffffffffffffffffffffff021916908373ffffffffffffffffffffffffffffffffffffffff1602179055506000600560006101000a81548173ffffffffffffffffffffffffffffffffffffffff021916908373ffffffffffffffffffffffffffffffffffffffff16021790555060286006556002600654620000a89190620001f4565b600755348015620000b857600080fd5b5060405162000d9438038062000d948339818101604052810190620000de91906200019e565b8260008190555081600160006101000a81548173ffffffffffffffffffffffffffffffffffffffff021916908373ffffffffffffffffffffffffffffffffffffffff16021790555080600860006101000a81548173ffffffffffffffffffffffffffffffffffffffff021916908373ffffffffffffffffffffffffffffffffffffffff160217905550505050620002f6565b6000815190506200018181620002c2565b92915050565b6000815190506200019881620002dc565b92915050565b600080600060608486031215620001b457600080fd5b6000620001c48682870162000187565b9350506020620001d78682870162000170565b9250506040620001ea8682870162000170565b9150509250925092565b6000620002018262000289565b91506200020e8362000289565b9250817fffffffffffffffffffffffffffffffffffffffffffffffffffffffffffffffff04831182151516156200024a576200024962000293565b5b828202905092915050565b6000620002628262000269565b9050919050565b600073ffffffffffffffffffffffffffffffffffffffff82169050919050565b6000819050919050565b7f4e487b7100000000000000000000000000000000000000000000000000000000600052601160045260246000fd5b620002cd8162000255565b8114620002d957600080fd5b50565b620002e78162000289565b8114620002f357600080fd5b50565b610a8e80620003066000396000f3fe608060405234801561001057600080fd5b50600436106100575760003560e01c806333c8a5561461005c5780634172fea314610078578063719a01da14610096578063757a5543146100b2578063a477df98146100bc575b600080fd5b61007660048036038101906100719190610783565b6100da565b005b610080610204565b60405161008d919061083d565b60405180910390f35b6100b060048036038101906100ab9190610783565b61020e565b005b6100ba610338565b005b6100c4610711565b6040516100d1919061083d565b60405180910390f35b60026000546100e991906108df565b82146100f457600080fd5b600160009054906101000a900473ffffffffffffffffffffffffffffffffffffffff1673ffffffffffffffffffffffffffffffffffffffff166323b872dd3330856040518463ffffffff1660e01b8152600401610153939291906107dd565b602060405180830381600087803b15801561016d57600080fd5b505af1158015610181573d6000803e3d6000fd5b505050506040513d601f19601f820116820180604052508101906101a5919061075a565b5081600260008282546101b89190610858565b9250508190555080600460006101000a81548173ffffffffffffffffffffffffffffffffffffffff021916908373ffffffffffffffffffffffffffffffffffffffff1602179055505050565b6000600354905090565b600260005461021d91906108df565b821461022857600080fd5b600160009054906101000a900473ffffffffffffffffffffffffffffffffffffffff1673ffffffffffffffffffffffffffffffffffffffff166323b872dd3330856040518463ffffffff1660e01b8152600401610287939291906107dd565b602060405180830381600087803b1580156102a157600080fd5b505af11580156102b5573d6000803e3d6000fd5b505050506040513d601f19601f820116820180604052508101906102d9919061075a565b5081600360008282546102ec9190610858565b9250508190555080600560006101000a81548173ffffffffffffffffffffffffffffffffffffffff021916908373ffffffffffffffffffffffffffffffffffffffff1602179055505050565b600073ffffffffffffffffffffffffffffffffffffffff16600560009054906101000a900473ffffffffffffffffffffffffffffffffffffffff1673ffffffffffffffffffffffffffffffffffffffff16141561039457600080fd5b600073ffffffffffffffffffffffffffffffffffffffff16600460009054906101000a900473ffffffffffffffffffffffffffffffffffffffff1673ffffffffffffffffffffffffffffffffffffffff1614156103f057600080fd5b60026000546103ff91906108df565b6002541461040c57600080fd5b600260005461041b91906108df565b6003541461042857600080fd5b600160009054906101000a900473ffffffffffffffffffffffffffffffffffffffff1673ffffffffffffffffffffffffffffffffffffffff1663a9059cbb600560009054906101000a900473ffffffffffffffffffffffffffffffffffffffff1660075460005461049991906108ae565b6000546000546000546104ac9190610858565b6104b69190610858565b6104c09190610939565b6040518363ffffffff1660e01b81526004016104dd929190610814565b602060405180830381600087803b1580156104f757600080fd5b505af115801561050b573d6000803e3d6000fd5b505050506040513d601f19601f8201168201806040525081019061052f919061075a565b50600160009054906101000a900473ffffffffffffffffffffffffffffffffffffffff1673ffffffffffffffffffffffffffffffffffffffff1663a9059cbb600460009054906101000a900473ffffffffffffffffffffffffffffffffffffffff166007546000546105a191906108ae565b6000546105ae9190610939565b6040518363ffffffff1660e01b81526004016105cb929190610814565b602060405180830381600087803b1580156105e557600080fd5b505af11580156105f9573d6000803e3d6000fd5b505050506040513d601f19601f8201168201806040525081019061061d919061075a565b50600160009054906101000a900473ffffffffffffffffffffffffffffffffffffffff1673ffffffffffffffffffffffffffffffffffffffff1663a9059cbb600860009054906101000a900473ffffffffffffffffffffffffffffffffffffffff1660065460005461068f91906108ae565b6040518363ffffffff1660e01b81526004016106ac929190610814565b602060405180830381600087803b1580156106c657600080fd5b505af11580156106da573d6000803e3d6000fd5b505050506040513d601f19601f820116820180604052508101906106fe919061075a565b5060006003819055506000600281905550565b6000600254905090565b60008135905061072a81610a13565b92915050565b60008151905061073f81610a2a565b92915050565b60008135905061075481610a41565b92915050565b60006020828403121561076c57600080fd5b600061077a84828501610730565b91505092915050565b6000806040838503121561079657600080fd5b60006107a485828601610745565b92505060206107b58582860161071b565b9150509250929050565b6107c88161096d565b82525050565b6107d7816109ab565b82525050565b60006060820190506107f260008301866107bf565b6107ff60208301856107bf565b61080c60408301846107ce565b949350505050565b600060408201905061082960008301856107bf565b61083660208301846107ce565b9392505050565b600060208201905061085260008301846107ce565b92915050565b6000610863826109ab565b915061086e836109ab565b9250827fffffffffffffffffffffffffffffffffffffffffffffffffffffffffffffffff038211156108a3576108a26109b5565b5b828201905092915050565b60006108b9826109ab565b91506108c4836109ab565b9250826108d4576108d36109e4565b5b828204905092915050565b60006108ea826109ab565b91506108f5836109ab565b9250817fffffffffffffffffffffffffffffffffffffffffffffffffffffffffffffffff048311821515161561092e5761092d6109b5565b5b828202905092915050565b6000610944826109ab565b915061094f836109ab565b925082821015610962576109616109b5565b5b828203905092915050565b60006109788261098b565b9050919050565b60008115159050919050565b600073ffffffffffffffffffffffffffffffffffffffff82169050919050565b6000819050919050565b7f4e487b7100000000000000000000000000000000000000000000000000000000600052601160045260246000fd5b7f4e487b7100000000000000000000000000000000000000000000000000000000600052601260045260246000fd5b610a1c8161096d565b8114610a2757600080fd5b50565b610a338161097f565b8114610a3e57600080fd5b50565b610a4a816109ab565b8114610a5557600080fd5b5056fea2646970667358221220a703d0ae63709d6c600b184401c1bc9ab83f69294fb977d74796ac7b53b4855a64736f6c63430008040033a264697066735822122039ceae308fd51e233d23decf8f8d786ed17393c41b8f7a7b4c02d07a409bf8f264736f6c63430008040033",
  "linkReferences": {},
  "deployedLinkReferences": {}
}