{
  "_format": "hh-sol-artifact-1",
  "contractName": "Marketplace",
  "sourceName": "contracts/Marketplace.sol",
  "abi": [
    {
      "inputs": [
        {
          "internalType": "address",
          "name": "_cUSDAddr",
          "type": "address"
        },
        {
          "internalType": "address[]",
          "name": "_authorizedUsers",
          "type": "address[]"
        }
      ],
      "stateMutability": "nonpayable",
      "type": "constructor"
    },
    {
      "anonymous": false,
      "inputs": [
        {
          "indexed": false,
          "internalType": "address",
          "name": "contractAddr",
          "type": "address"
        },
        {
          "indexed": false,
          "internalType": "uint256",
          "name": "itemId",
          "type": "uint256"
        }
      ],
      "name": "newEscrow",
      "type": "event"
    },
    {
      "anonymous": false,
      "inputs": [
        {
          "indexed": false,
          "internalType": "string",
          "name": "name",
          "type": "string"
        },
        {
          "indexed": false,
          "internalType": "string",
          "name": "description",
          "type": "string"
        },
        {
          "indexed": false,
          "internalType": "uint256",
          "name": "price",
          "type": "uint256"
        },
        {
          "indexed": false,
          "internalType": "string",
          "name": "ipfsHash",
          "type": "string"
        },
        {
          "indexed": false,
          "internalType": "bool",
          "name": "sold",
          "type": "bool"
        },
        {
          "indexed": false,
          "internalType": "uint256",
          "name": "itemId",
          "type": "uint256"
        }
      ],
      "name": "newListing",
      "type": "event"
    },
    {
      "inputs": [
        {
          "internalType": "address",
          "name": "newUser",
          "type": "address"
        }
      ],
      "name": "authorizeUser",
      "outputs": [],
      "stateMutability": "nonpayable",
      "type": "function"
    },
    {
      "inputs": [
        {
          "internalType": "uint256",
          "name": "listingId",
          "type": "uint256"
        }
      ],
      "name": "getListingInfo",
      "outputs": [
        {
          "components": [
            {
              "internalType": "string",
              "name": "name",
              "type": "string"
            },
            {
              "internalType": "string",
              "name": "description",
              "type": "string"
            },
            {
              "internalType": "uint256",
              "name": "price",
              "type": "uint256"
            },
            {
              "internalType": "string",
              "name": "ipfsHash",
              "type": "string"
            },
            {
              "internalType": "bool",
              "name": "sold",
              "type": "bool"
            },
            {
              "internalType": "uint256",
              "name": "itemId",
              "type": "uint256"
            },
            {
              "internalType": "address",
              "name": "escrowAddr",
              "type": "address"
            },
            {
              "internalType": "uint256",
              "name": "createdOn",
              "type": "uint256"
            }
          ],
          "internalType": "struct Marketplace.Listing",
          "name": "",
          "type": "tuple"
        }
      ],
      "stateMutability": "view",
      "type": "function"
    },
    {
      "inputs": [],
      "name": "getUserListings",
      "outputs": [
        {
          "components": [
            {
              "internalType": "string",
              "name": "name",
              "type": "string"
            },
            {
              "internalType": "string",
              "name": "description",
              "type": "string"
            },
            {
              "internalType": "uint256",
              "name": "price",
              "type": "uint256"
            },
            {
              "internalType": "string",
              "name": "ipfsHash",
              "type": "string"
            },
            {
              "internalType": "bool",
              "name": "sold",
              "type": "bool"
            },
            {
              "internalType": "uint256",
              "name": "itemId",
              "type": "uint256"
            },
            {
              "internalType": "address",
              "name": "escrowAddr",
              "type": "address"
            },
            {
              "internalType": "uint256",
              "name": "createdOn",
              "type": "uint256"
            }
          ],
          "internalType": "struct Marketplace.Listing[]",
          "name": "",
          "type": "tuple[]"
        }
      ],
      "stateMutability": "view",
      "type": "function"
    },
    {
      "inputs": [
        {
          "internalType": "string",
          "name": "name",
          "type": "string"
        },
        {
          "internalType": "string",
          "name": "description",
          "type": "string"
        },
        {
          "internalType": "uint256",
          "name": "price",
          "type": "uint256"
        },
        {
          "internalType": "string",
          "name": "ipfsHash",
          "type": "string"
        }
      ],
      "name": "newItem",
      "outputs": [],
      "stateMutability": "nonpayable",
      "type": "function"
    },
    {
      "inputs": [
        {
          "internalType": "uint256",
          "name": "listingId",
          "type": "uint256"
        }
      ],
      "name": "purchase",
      "outputs": [],
      "stateMutability": "nonpayable",
      "type": "function"
    },
    {
      "inputs": [
        {
          "internalType": "uint256",
          "name": "listingId",
          "type": "uint256"
        }
      ],
      "name": "releaseEscrow",
      "outputs": [],
      "stateMutability": "nonpayable",
      "type": "function"
    },
    {
      "inputs": [
        {
          "internalType": "uint256",
          "name": "amount",
          "type": "uint256"
        }
      ],
      "name": "withdrawAmount",
      "outputs": [],
      "stateMutability": "nonpayable",
      "type": "function"
    }
  ],
  "bytecode": "0x6080604052600060055566b1a2bc2ec5000060065560008054906101000a900473ffffffffffffffffffffffffffffffffffffffff16600760006101000a81548173ffffffffffffffffffffffffffffffffffffffff021916908373ffffffffffffffffffffffffffffffffffffffff1602179055503480156200008257600080fd5b50604051620037f8380380620037f88339818101604052810190620000a8919062000270565b816000806101000a81548173ffffffffffffffffffffffffffffffffffffffff021916908373ffffffffffffffffffffffffffffffffffffffff16021790555080600390805190602001906200010092919062000109565b505050620003e6565b82805482825590600052602060002090810192821562000185579160200282015b82811115620001845782518260006101000a81548173ffffffffffffffffffffffffffffffffffffffff021916908373ffffffffffffffffffffffffffffffffffffffff160217905550916020019190600101906200012a565b5b50905062000194919062000198565b5090565b5b80821115620001b357600081600090555060010162000199565b5090565b6000620001ce620001c884620002f3565b620002ca565b90508083825260208201905082856020860282011115620001ee57600080fd5b60005b858110156200022257816200020788826200022c565b845260208401935060208301925050600181019050620001f1565b5050509392505050565b6000815190506200023d81620003cc565b92915050565b600082601f8301126200025557600080fd5b815162000267848260208601620001b7565b91505092915050565b600080604083850312156200028457600080fd5b600062000294858286016200022c565b925050602083015167ffffffffffffffff811115620002b257600080fd5b620002c08582860162000243565b9150509250929050565b6000620002d6620002e9565b9050620002e4828262000356565b919050565b6000604051905090565b600067ffffffffffffffff8211156200031157620003106200038c565b5b602082029050602081019050919050565b60006200032f8262000336565b9050919050565b600073ffffffffffffffffffffffffffffffffffffffff82169050919050565b6200036182620003bb565b810181811067ffffffffffffffff821117156200038357620003826200038c565b5b80604052505050565b7f4e487b7100000000000000000000000000000000000000000000000000000000600052604160045260246000fd5b6000601f19601f8301169050919050565b620003d78162000322565b8114620003e357600080fd5b50565b61340280620003f66000396000f3fe60806040523480156200001157600080fd5b5060043610620000885760003560e01c806367c2a360116200006357806367c2a36014620000ef578063b9314135146200010f578063ed6531641462000145578063efef39a114620001655762000088565b80630562b9f7146200008d578063081fd1d114620000ad57806329f34c5f14620000cd575b600080fd5b620000ab6004803603810190620000a5919062001b79565b62000185565b005b620000cb6004803603810190620000c5919062001ac2565b62000368565b005b620000d762000b0d565b604051620000e691906200200f565b60405180910390f35b6200010d600480360381019062000107919062001a6a565b62000e09565b005b6200012d600480360381019062000127919062001b79565b62000ebc565b6040516200013c91906200213d565b60405180910390f35b6200016360048036038101906200015d919062001b79565b62001149565b005b6200018360048036038101906200017d919062001b79565b62001220565b005b6200019033620016a5565b620001d2576040517f08c379a0000000000000000000000000000000000000000000000000000000008152600401620001c990620020b5565b60405180910390fd5b80600460003373ffffffffffffffffffffffffffffffffffffffff1673ffffffffffffffffffffffffffffffffffffffff16815260200190815260200160002054111562000257576040517f08c379a00000000000000000000000000000000000000000000000000000000081526004016200024e906200211b565b60405180910390fd5b80600460003373ffffffffffffffffffffffffffffffffffffffff1673ffffffffffffffffffffffffffffffffffffffff1681526020019081526020016000206000828254620002a8919062002376565b92505081905550600760009054906101000a900473ffffffffffffffffffffffffffffffffffffffff1673ffffffffffffffffffffffffffffffffffffffff1663a9059cbb33836040518363ffffffff1660e01b81526004016200030e92919062001fe2565b602060405180830381600087803b1580156200032957600080fd5b505af11580156200033e573d6000803e3d6000fd5b505050506040513d601f19601f8201168201806040525081019062000364919062001a96565b5050565b6200037262001881565b8481600001819052508381602001819052508281604001818152505081816060018190525060008160800190151590811515815250506005548160a0018181525050438160e00181815250506000816040015160008054906101000a900473ffffffffffffffffffffffffffffffffffffffff1630604051620003f590620018de565b62000403939291906200217e565b604051809103906000f08015801562000420573d6000803e3d6000fd5b509050808260c0019073ffffffffffffffffffffffffffffffffffffffff16908173ffffffffffffffffffffffffffffffffffffffff16815250507f8c771a8ea2fc98e3a8dcf80a13033d0d693aa53ef514d419bc32577c9a29d76e8260c001518360a001516040516200049692919062001fe2565b60405180910390a160028260400151620004b1919062002315565b600760009054906101000a900473ffffffffffffffffffffffffffffffffffffffff1673ffffffffffffffffffffffffffffffffffffffff166370a08231336040518263ffffffff1660e01b81526004016200050e919062001f88565b60206040518083038186803b1580156200052757600080fd5b505afa1580156200053c573d6000803e3d6000fd5b505050506040513d601f19601f8201168201806040525081019062000562919062001ba5565b10156200056e57600080fd5b600760009054906101000a900473ffffffffffffffffffffffffffffffffffffffff1673ffffffffffffffffffffffffffffffffffffffff166323b872dd333060028660400151620005c1919062002315565b6040518463ffffffff1660e01b8152600401620005e19392919062001fa5565b602060405180830381600087803b158015620005fc57600080fd5b505af115801562000611573d6000803e3d6000fd5b505050506040513d601f19601f8201168201806040525081019062000637919062001a96565b50600760009054906101000a900473ffffffffffffffffffffffffffffffffffffffff1673ffffffffffffffffffffffffffffffffffffffff1663095ea7b38360c00151600285604001516200068e919062002315565b6040518363ffffffff1660e01b8152600401620006ad92919062001fe2565b602060405180830381600087803b158015620006c857600080fd5b505af1158015620006dd573d6000803e3d6000fd5b505050506040513d601f19601f8201168201806040525081019062000703919062001a96565b508073ffffffffffffffffffffffffffffffffffffffff16630eb479226002846040015162000733919062002315565b6040518263ffffffff1660e01b815260040162000751919062002161565b600060405180830381600087803b1580156200076c57600080fd5b505af115801562000781573d6000803e3d6000fd5b505050506002826040015162000798919062002315565b8173ffffffffffffffffffffffffffffffffffffffff16634172fea36040518163ffffffff1660e01b815260040160206040518083038186803b158015620007df57600080fd5b505afa158015620007f4573d6000803e3d6000fd5b505050506040513d601f19601f820116820180604052508101906200081a919062001ba5565b146200085d576040517f08c379a00000000000000000000000000000000000000000000000000000000081526004016200085490620020d7565b60405180910390fd5b81600260006005548152602001908152602001600020600082015181600001908051906020019062000891929190620018ec565b506020820151816001019080519060200190620008b0929190620018ec565b50604082015181600201556060820151816003019080519060200190620008d9929190620018ec565b5060808201518160040160006101000a81548160ff02191690831515021790555060a0820151816005015560c08201518160060160006101000a81548173ffffffffffffffffffffffffffffffffffffffff021916908373ffffffffffffffffffffffffffffffffffffffff16021790555060e08201518160070155905050600160003373ffffffffffffffffffffffffffffffffffffffff1673ffffffffffffffffffffffffffffffffffffffff1681526020019081526020016000208290806001815401808255809150506001900390600052602060002090600802016000909190919091506000820151816000019080519060200190620009df929190620018ec565b506020820151816001019080519060200190620009fe929190620018ec565b5060408201518160020155606082015181600301908051906020019062000a27929190620018ec565b5060808201518160040160006101000a81548160ff02191690831515021790555060a0820151816005015560c08201518160060160006101000a81548173ffffffffffffffffffffffffffffffffffffffff021916908373ffffffffffffffffffffffffffffffffffffffff16021790555060e0820151816007015550506005600081548092919062000aba90620024ac565b91905055507f8ab2d74452b509bf195e527d73f72080750df2bb418589a58dff7cd1fb90229d86868686600060055460405162000afd9695949392919062002033565b60405180910390a1505050505050565b6060600160003373ffffffffffffffffffffffffffffffffffffffff1673ffffffffffffffffffffffffffffffffffffffff168152602001908152602001600020805480602002602001604051908101604052809291908181526020016000905b8282101562000e0057838290600052602060002090600802016040518061010001604052908160008201805462000ba59062002440565b80601f016020809104026020016040519081016040528092919081815260200182805462000bd39062002440565b801562000c245780601f1062000bf85761010080835404028352916020019162000c24565b820191906000526020600020905b81548152906001019060200180831162000c0657829003601f168201915b5050505050815260200160018201805462000c3f9062002440565b80601f016020809104026020016040519081016040528092919081815260200182805462000c6d9062002440565b801562000cbe5780601f1062000c925761010080835404028352916020019162000cbe565b820191906000526020600020905b81548152906001019060200180831162000ca057829003601f168201915b505050505081526020016002820154815260200160038201805462000ce39062002440565b80601f016020809104026020016040519081016040528092919081815260200182805462000d119062002440565b801562000d625780601f1062000d365761010080835404028352916020019162000d62565b820191906000526020600020905b81548152906001019060200180831162000d4457829003601f168201915b505050505081526020016004820160009054906101000a900460ff16151515158152602001600582015481526020016006820160009054906101000a900473ffffffffffffffffffffffffffffffffffffffff1673ffffffffffffffffffffffffffffffffffffffff1673ffffffffffffffffffffffffffffffffffffffff1681526020016007820154815250508152602001906001019062000b6e565b50505050905090565b62000e1433620016a5565b62000e56576040517f08c379a000000000000000000000000000000000000000000000000000000000815260040162000e4d90620020b5565b60405180910390fd5b6003819080600181540180825580915050600190039060005260206000200160009091909190916101000a81548173ffffffffffffffffffffffffffffffffffffffff021916908373ffffffffffffffffffffffffffffffffffffffff16021790555050565b62000ec662001881565b600260008381526020019081526020016000206040518061010001604052908160008201805462000ef79062002440565b80601f016020809104026020016040519081016040528092919081815260200182805462000f259062002440565b801562000f765780601f1062000f4a5761010080835404028352916020019162000f76565b820191906000526020600020905b81548152906001019060200180831162000f5857829003601f168201915b5050505050815260200160018201805462000f919062002440565b80601f016020809104026020016040519081016040528092919081815260200182805462000fbf9062002440565b8015620010105780601f1062000fe45761010080835404028352916020019162001010565b820191906000526020600020905b81548152906001019060200180831162000ff257829003601f168201915b5050505050815260200160028201548152602001600382018054620010359062002440565b80601f0160208091040260200160405190810160405280929190818152602001828054620010639062002440565b8015620010b45780601f106200108857610100808354040283529160200191620010b4565b820191906000526020600020905b8154815290600101906020018083116200109657829003601f168201915b505050505081526020016004820160009054906101000a900460ff16151515158152602001600582015481526020016006820160009054906101000a900473ffffffffffffffffffffffffffffffffffffffff1673ffffffffffffffffffffffffffffffffffffffff1673ffffffffffffffffffffffffffffffffffffffff1681526020016007820154815250509050919050565b60006002600083815260200190815260200160002060060160009054906101000a900473ffffffffffffffffffffffffffffffffffffffff16905060008190508073ffffffffffffffffffffffffffffffffffffffff1663757a55436040518163ffffffff1660e01b8152600401600060405180830381600087803b158015620011d257600080fd5b505af1158015620011e7573d6000803e3d6000fd5b505050506200121b6006546002600086815260200190815260200160002060020154620012159190620022dd565b62001781565b505050565b60006002600083815260200190815260200160002060060160009054906101000a900473ffffffffffffffffffffffffffffffffffffffff1690506002806000848152602001908152602001600020600201546200127f919062002315565b600760009054906101000a900473ffffffffffffffffffffffffffffffffffffffff1673ffffffffffffffffffffffffffffffffffffffff166370a08231336040518263ffffffff1660e01b8152600401620012dc919062001f88565b60206040518083038186803b158015620012f557600080fd5b505afa1580156200130a573d6000803e3d6000fd5b505050506040513d601f19601f8201168201806040525081019062001330919062001ba5565b10156200133c57600080fd5b600760009054906101000a900473ffffffffffffffffffffffffffffffffffffffff1673ffffffffffffffffffffffffffffffffffffffff166323b872dd3330600280600088815260200190815260200160002060020154620013a0919062002315565b6040518463ffffffff1660e01b8152600401620013c09392919062001fa5565b602060405180830381600087803b158015620013db57600080fd5b505af1158015620013f0573d6000803e3d6000fd5b505050506040513d601f19601f8201168201806040525081019062001416919062001a96565b50600760009054906101000a900473ffffffffffffffffffffffffffffffffffffffff1673ffffffffffffffffffffffffffffffffffffffff1663095ea7b36002600085815260200190815260200160002060060160009054906101000a900473ffffffffffffffffffffffffffffffffffffffff16600280600087815260200190815260200160002060020154620014b0919062002315565b6040518363ffffffff1660e01b8152600401620014cf92919062001fe2565b602060405180830381600087803b158015620014ea57600080fd5b505af1158015620014ff573d6000803e3d6000fd5b505050506040513d601f19601f8201168201806040525081019062001525919062001a96565b508073ffffffffffffffffffffffffffffffffffffffff16636deba5f360028060008681526020019081526020016000206002015462001566919062002315565b6040518263ffffffff1660e01b815260040162001584919062002161565b600060405180830381600087803b1580156200159f57600080fd5b505af1158015620015b4573d6000803e3d6000fd5b50505050600280600084815260200190815260200160002060020154620015dc919062002315565b8173ffffffffffffffffffffffffffffffffffffffff1663a477df986040518163ffffffff1660e01b815260040160206040518083038186803b1580156200162357600080fd5b505afa15801562001638573d6000803e3d6000fd5b505050506040513d601f19601f820116820180604052508101906200165e919062001ba5565b14620016a1576040517f08c379a00000000000000000000000000000000000000000000000000000000081526004016200169890620020f9565b60405180910390fd5b5050565b600080600090505b60038054905081101562001776578273ffffffffffffffffffffffffffffffffffffffff16600382815481106200170d577f4e487b7100000000000000000000000000000000000000000000000000000000600052603260045260246000fd5b9060005260206000200160009054906101000a900473ffffffffffffffffffffffffffffffffffffffff1673ffffffffffffffffffffffffffffffffffffffff161415620017605760019150506200177c565b80806200176d90620024ac565b915050620016ad565b50600090505b919050565b600060038054905082620017969190620022dd565b905060005b6003805490508110156200187c57816004600060038481548110620017e9577f4e487b7100000000000000000000000000000000000000000000000000000000600052603260045260246000fd5b9060005260206000200160009054906101000a900473ffffffffffffffffffffffffffffffffffffffff1673ffffffffffffffffffffffffffffffffffffffff1673ffffffffffffffffffffffffffffffffffffffff16815260200190815260200160002060008282546200185f919062002280565b9250508190555080806200187390620024ac565b9150506200179b565b505050565b6040518061010001604052806060815260200160608152602001600081526020016060815260200160001515815260200160008152602001600073ffffffffffffffffffffffffffffffffffffffff168152602001600081525090565b610d1380620026ba83390190565b828054620018fa9062002440565b90600052602060002090601f0160209004810192826200191e57600085556200196a565b82601f106200193957805160ff19168380011785556200196a565b828001600101855582156200196a579182015b82811115620019695782518255916020019190600101906200194c565b5b5090506200197991906200197d565b5090565b5b80821115620019985760008160009055506001016200197e565b5090565b6000620019b3620019ad84620021e4565b620021bb565b905082815260208101848484011115620019cc57600080fd5b620019d9848285620023fb565b509392505050565b600081359050620019f2816200266b565b92915050565b60008151905062001a098162002685565b92915050565b600082601f83011262001a2157600080fd5b813562001a338482602086016200199c565b91505092915050565b60008135905062001a4d816200269f565b92915050565b60008151905062001a64816200269f565b92915050565b60006020828403121562001a7d57600080fd5b600062001a8d84828501620019e1565b91505092915050565b60006020828403121562001aa957600080fd5b600062001ab984828501620019f8565b91505092915050565b6000806000806080858703121562001ad957600080fd5b600085013567ffffffffffffffff81111562001af457600080fd5b62001b028782880162001a0f565b945050602085013567ffffffffffffffff81111562001b2057600080fd5b62001b2e8782880162001a0f565b935050604062001b418782880162001a3c565b925050606085013567ffffffffffffffff81111562001b5f57600080fd5b62001b6d8782880162001a0f565b91505092959194509250565b60006020828403121562001b8c57600080fd5b600062001b9c8482850162001a3c565b91505092915050565b60006020828403121562001bb857600080fd5b600062001bc88482850162001a53565b91505092915050565b600062001bdf838362001dca565b905092915050565b62001bf281620023b1565b82525050565b62001c0381620023b1565b82525050565b600062001c16826200222a565b62001c2281856200224d565b93508360208202850162001c36856200221a565b8060005b8581101562001c78578484038952815162001c56858262001bd1565b945062001c638362002240565b925060208a0199505060018101905062001c3a565b50829750879550505050505092915050565b62001c9581620023c5565b82525050565b62001ca681620023c5565b82525050565b600062001cb98262002235565b62001cc581856200225e565b935062001cd78185602086016200240a565b62001ce281620025b6565b840191505092915050565b600062001cfa8262002235565b62001d0681856200226f565b935062001d188185602086016200240a565b62001d2381620025b6565b840191505092915050565b600062001d3d601e836200226f565b915062001d4a82620025c7565b602082019050919050565b600062001d646015836200226f565b915062001d7182620025f0565b602082019050919050565b600062001d8b6014836200226f565b915062001d988262002619565b602082019050919050565b600062001db26014836200226f565b915062001dbf8262002642565b602082019050919050565b600061010083016000830151848203600086015262001dea828262001cac565b9150506020830151848203602086015262001e06828262001cac565b915050604083015162001e1d604086018262001f66565b506060830151848203606086015262001e37828262001cac565b915050608083015162001e4e608086018262001c8a565b5060a083015162001e6360a086018262001f66565b5060c083015162001e7860c086018262001be7565b5060e083015162001e8d60e086018262001f66565b508091505092915050565b600061010083016000830151848203600086015262001eb8828262001cac565b9150506020830151848203602086015262001ed4828262001cac565b915050604083015162001eeb604086018262001f66565b506060830151848203606086015262001f05828262001cac565b915050608083015162001f1c608086018262001c8a565b5060a083015162001f3160a086018262001f66565b5060c083015162001f4660c086018262001be7565b5060e083015162001f5b60e086018262001f66565b508091505092915050565b62001f7181620023f1565b82525050565b62001f8281620023f1565b82525050565b600060208201905062001f9f600083018462001bf8565b92915050565b600060608201905062001fbc600083018662001bf8565b62001fcb602083018562001bf8565b62001fda604083018462001f77565b949350505050565b600060408201905062001ff9600083018562001bf8565b62002008602083018462001f77565b9392505050565b600060208201905081810360008301526200202b818462001c09565b905092915050565b600060c08201905081810360008301526200204f818962001ced565b9050818103602083015262002065818862001ced565b905062002076604083018762001f77565b81810360608301526200208a818662001ced565b90506200209b608083018562001c9b565b620020aa60a083018462001f77565b979650505050505050565b60006020820190508181036000830152620020d08162001d2e565b9050919050565b60006020820190508181036000830152620020f28162001d55565b9050919050565b60006020820190508181036000830152620021148162001d7c565b9050919050565b60006020820190508181036000830152620021368162001da3565b9050919050565b6000602082019050818103600083015262002159818462001e98565b905092915050565b600060208201905062002178600083018462001f77565b92915050565b600060608201905062002195600083018662001f77565b620021a4602083018562001bf8565b620021b3604083018462001bf8565b949350505050565b6000620021c7620021da565b9050620021d5828262002476565b919050565b6000604051905090565b600067ffffffffffffffff82111562002202576200220162002587565b5b6200220d82620025b6565b9050602081019050919050565b6000819050602082019050919050565b600081519050919050565b600081519050919050565b6000602082019050919050565b600082825260208201905092915050565b600082825260208201905092915050565b600082825260208201905092915050565b60006200228d82620023f1565b91506200229a83620023f1565b9250827fffffffffffffffffffffffffffffffffffffffffffffffffffffffffffffffff03821115620022d257620022d1620024fa565b5b828201905092915050565b6000620022ea82620023f1565b9150620022f783620023f1565b9250826200230a576200230962002529565b5b828204905092915050565b60006200232282620023f1565b91506200232f83620023f1565b9250817fffffffffffffffffffffffffffffffffffffffffffffffffffffffffffffffff04831182151516156200236b576200236a620024fa565b5b828202905092915050565b60006200238382620023f1565b91506200239083620023f1565b925082821015620023a657620023a5620024fa565b5b828203905092915050565b6000620023be82620023d1565b9050919050565b60008115159050919050565b600073ffffffffffffffffffffffffffffffffffffffff82169050919050565b6000819050919050565b82818337600083830152505050565b60005b838110156200242a5780820151818401526020810190506200240d565b838111156200243a576000848401525b50505050565b600060028204905060018216806200245957607f821691505b6020821081141562002470576200246f62002558565b5b50919050565b6200248182620025b6565b810181811067ffffffffffffffff82111715620024a357620024a262002587565b5b80604052505050565b6000620024b982620023f1565b91507fffffffffffffffffffffffffffffffffffffffffffffffffffffffffffffffff821415620024ef57620024ee620024fa565b5b600182019050919050565b7f4e487b7100000000000000000000000000000000000000000000000000000000600052601160045260246000fd5b7f4e487b7100000000000000000000000000000000000000000000000000000000600052601260045260246000fd5b7f4e487b7100000000000000000000000000000000000000000000000000000000600052602260045260246000fd5b7f4e487b7100000000000000000000000000000000000000000000000000000000600052604160045260246000fd5b6000601f19601f8301169050919050565b7f596f7520617265206e6f7420616e20617574686f72697a656420757365720000600082015250565b7f53656c6c6572206465706f736974206661696c65640000000000000000000000600082015250565b7f4275796572206465706f736974206661696c6564000000000000000000000000600082015250565b7f4578636565647320757365722062616c616e6365000000000000000000000000600082015250565b6200267681620023b1565b81146200268257600080fd5b50565b6200269081620023c5565b81146200269c57600080fd5b50565b620026aa81620023f1565b8114620026b657600080fd5b5056fe6080604052600060025560006003556000600460006101000a81548173ffffffffffffffffffffffffffffffffffffffff021916908373ffffffffffffffffffffffffffffffffffffffff1602179055506000600560006101000a81548173ffffffffffffffffffffffffffffffffffffffff021916908373ffffffffffffffffffffffffffffffffffffffff16021790555066b1a2bc2ec500006006556002600654620000ae9190620001fa565b600755348015620000be57600080fd5b5060405162000d1338038062000d138339818101604052810190620000e49190620001a4565b8260008190555081600160006101000a81548173ffffffffffffffffffffffffffffffffffffffff021916908373ffffffffffffffffffffffffffffffffffffffff16021790555080600860006101000a81548173ffffffffffffffffffffffffffffffffffffffff021916908373ffffffffffffffffffffffffffffffffffffffff160217905550505050620002d3565b60008151905062000187816200029f565b92915050565b6000815190506200019e81620002b9565b92915050565b600080600060608486031215620001ba57600080fd5b6000620001ca868287016200018d565b9350506020620001dd8682870162000176565b9250506040620001f08682870162000176565b9150509250925092565b6000620002078262000266565b9150620002148362000266565b92508262000227576200022662000270565b5b828204905092915050565b60006200023f8262000246565b9050919050565b600073ffffffffffffffffffffffffffffffffffffffff82169050919050565b6000819050919050565b7f4e487b7100000000000000000000000000000000000000000000000000000000600052601260045260246000fd5b620002aa8162000232565b8114620002b657600080fd5b50565b620002c48162000266565b8114620002d057600080fd5b50565b610a3080620002e36000396000f3fe608060405234801561001057600080fd5b50600436106100575760003560e01c80630eb479221461005c5780634172fea3146100785780636deba5f314610096578063757a5543146100b2578063a477df98146100bc575b600080fd5b6100766004803603810190610071919061074f565b6100da565b005b610080610203565b60405161008d91906107f6565b60405180910390f35b6100b060048036038101906100ab919061074f565b61020d565b005b6100ba610336565b005b6100c46106f2565b6040516100d191906107f6565b60405180910390f35b60026000546100e99190610898565b81146100f457600080fd5b600160009054906101000a900473ffffffffffffffffffffffffffffffffffffffff1673ffffffffffffffffffffffffffffffffffffffff166323b872dd3330846040518463ffffffff1660e01b815260040161015393929190610796565b602060405180830381600087803b15801561016d57600080fd5b505af1158015610181573d6000803e3d6000fd5b505050506040513d601f19601f820116820180604052508101906101a59190610726565b5080600360008282546101b89190610811565b9250508190555033600560006101000a81548173ffffffffffffffffffffffffffffffffffffffff021916908373ffffffffffffffffffffffffffffffffffffffff16021790555050565b6000600354905090565b600260005461021c9190610898565b811461022757600080fd5b600160009054906101000a900473ffffffffffffffffffffffffffffffffffffffff1673ffffffffffffffffffffffffffffffffffffffff166323b872dd3330846040518463ffffffff1660e01b815260040161028693929190610796565b602060405180830381600087803b1580156102a057600080fd5b505af11580156102b4573d6000803e3d6000fd5b505050506040513d601f19601f820116820180604052508101906102d89190610726565b5080600260008282546102eb9190610811565b9250508190555033600460006101000a81548173ffffffffffffffffffffffffffffffffffffffff021916908373ffffffffffffffffffffffffffffffffffffffff16021790555050565b600073ffffffffffffffffffffffffffffffffffffffff16600560009054906101000a900473ffffffffffffffffffffffffffffffffffffffff1673ffffffffffffffffffffffffffffffffffffffff16141561039257600080fd5b600073ffffffffffffffffffffffffffffffffffffffff16600460009054906101000a900473ffffffffffffffffffffffffffffffffffffffff1673ffffffffffffffffffffffffffffffffffffffff1614156103ee57600080fd5b60026000546103fd9190610898565b6002541461040a57600080fd5b60026000546104199190610898565b6003541461042657600080fd5b600160009054906101000a900473ffffffffffffffffffffffffffffffffffffffff1673ffffffffffffffffffffffffffffffffffffffff1663a9059cbb600560009054906101000a900473ffffffffffffffffffffffffffffffffffffffff166007546000546104979190610867565b6000546000546104a79190610811565b6104b191906108f2565b6040518363ffffffff1660e01b81526004016104ce9291906107cd565b602060405180830381600087803b1580156104e857600080fd5b505af11580156104fc573d6000803e3d6000fd5b505050506040513d601f19601f820116820180604052508101906105209190610726565b50600160009054906101000a900473ffffffffffffffffffffffffffffffffffffffff1673ffffffffffffffffffffffffffffffffffffffff1663a9059cbb600460009054906101000a900473ffffffffffffffffffffffffffffffffffffffff166007546000546105929190610867565b60005461059f91906108f2565b6040518363ffffffff1660e01b81526004016105bc9291906107cd565b602060405180830381600087803b1580156105d657600080fd5b505af11580156105ea573d6000803e3d6000fd5b505050506040513d601f19601f8201168201806040525081019061060e9190610726565b50600160009054906101000a900473ffffffffffffffffffffffffffffffffffffffff1673ffffffffffffffffffffffffffffffffffffffff1663a9059cbb600860009054906101000a900473ffffffffffffffffffffffffffffffffffffffff166006546000546106809190610867565b6040518363ffffffff1660e01b815260040161069d9291906107cd565b602060405180830381600087803b1580156106b757600080fd5b505af11580156106cb573d6000803e3d6000fd5b505050506040513d601f19601f820116820180604052508101906106ef9190610726565b50565b6000600254905090565b60008151905061070b816109cc565b92915050565b600081359050610720816109e3565b92915050565b60006020828403121561073857600080fd5b6000610746848285016106fc565b91505092915050565b60006020828403121561076157600080fd5b600061076f84828501610711565b91505092915050565b61078181610926565b82525050565b61079081610964565b82525050565b60006060820190506107ab6000830186610778565b6107b86020830185610778565b6107c56040830184610787565b949350505050565b60006040820190506107e26000830185610778565b6107ef6020830184610787565b9392505050565b600060208201905061080b6000830184610787565b92915050565b600061081c82610964565b915061082783610964565b9250827fffffffffffffffffffffffffffffffffffffffffffffffffffffffffffffffff0382111561085c5761085b61096e565b5b828201905092915050565b600061087282610964565b915061087d83610964565b92508261088d5761088c61099d565b5b828204905092915050565b60006108a382610964565b91506108ae83610964565b9250817fffffffffffffffffffffffffffffffffffffffffffffffffffffffffffffffff04831182151516156108e7576108e661096e565b5b828202905092915050565b60006108fd82610964565b915061090883610964565b92508282101561091b5761091a61096e565b5b828203905092915050565b600061093182610944565b9050919050565b60008115159050919050565b600073ffffffffffffffffffffffffffffffffffffffff82169050919050565b6000819050919050565b7f4e487b7100000000000000000000000000000000000000000000000000000000600052601160045260246000fd5b7f4e487b7100000000000000000000000000000000000000000000000000000000600052601260045260246000fd5b6109d581610938565b81146109e057600080fd5b50565b6109ec81610964565b81146109f757600080fd5b5056fea2646970667358221220d707087eea67d369ebc7cbe4b8e82fe68d631f83fa7978796a49bfae056b8a9164736f6c63430008040033a2646970667358221220ec9ab1eac68a7ba3c2c29e771eda6c7ca7b4a1940e89d66191ff16882018362164736f6c63430008040033",
  "linkReferences": {},
  "deployedLinkReferences": {}
}